:100000000C944E000C946B000C946B000C946B00E1
:100010000C946B000C946B000C946B000C946B00B4
:100020000C946B000C946B000C946B000C94030309
:100030000C946B000C946B000C946B000C946B0094
:100040000C946B000C946B000C946B000C946B0084
:100050000C946B000C946B000C946B000C946B0074
:100060000C946B000C946B00D106DD06E806F306D9
:100070001F07FE0607070A070D075A071F071F0776
:1000800014072A072F07340739076A073E07430773
:1000900046076A075A076A074E07490711241FBE19
:1000A000CFEFD8E0DEBFCDBF14E0A0E0B1E0E6E0E6
:1000B000F0E102C005900D92A63BB107D9F724E00C
:1000C000A6EBB4E001C01D92A23CB207E1F70E948A
:1000D0005F060C9401080C940000FC011082118250
:1000E0001282138214821682158217821086DC0116
:1000F00019963D9694E681E09D9313961C92139772
:1001000017961C9217971B968C931B97AE17BF07D9
:1001100099F708958F929F92AF92BF92CF92DF92FC
:10012000EF92FF920F931F93CF93DF9300D000D0F5
:100130001F92CDB7DEB78C016A017B01DB01CA01DA
:100140000197A109B10980349F41A105B10528F0AB
:1001500040345C4961057105C9F52F3FB9F585E06B
:10016000E0E0F3E0DE01119601900D928A95E1F74F
:1001700088249C2CAD2CBE2C60E070E18EE59FE5C0
:10018000A50194010E94970781E02115310591E0B6
:100190004907510580F0E1E0F0E0EC0FFD1FE80FAA
:1001A000F11D008004C056954795379527950A9410
:1001B000D2F78F5FEACFF801C082D182E282F38268
:1001C00084833683258380E090E002C08FEF9FEF29
:1001D0000F900F900F900F900F90DF91CF911F9184
:1001E0000F91FF90EF90DF90CF90BF90AF909F90D6
:1001F0008F900895CF92DF92EF92FF92FC016A01F7
:100200007B01493681E0580761057105F0F4942FB0
:1002100088272F3F69F468E671E00E946F07C58662
:10022000618BC686628BC786638BC08A648B0AC06B
:10023000E20FF11D27FDFA95458768E671E00E94FF
:100240006F07618B80E090E002C08FEF9FEFFF901F
:10025000EF90DF90CF900895453651056105710507
:1002600060F4213019F4FC01418704C0223029F4E4
:10027000FC01428780E090E008958FEF9FEF0895A2
:10028000FC012F3F09F540345105A9F040F44130FD
:100290005105A9F048305105B9F491E00EC041155F
:1002A00081E0580729F04115544071F492E001C0F3
:1002B00091E09F5F01C091E09F5F9F5F01C091E06F
:1002C000978380E090E008958FEF9FEF0895FC0101
:1002D000423051056105710520F481E0820F8530BF
:1002E00018F08FEF9FEF08952F3F29F4458B468B31
:1002F000478B408F05C0E20FF11D27FDFA95458B16
:1003000008952F3F31F421E0FC01208780E090E048
:1003100008958FEF9FEF0895519A509882E080934F
:10032000C0001092C5008FEC8093C400E1ECF0E0B7
:1003300080818861808386E08093C20008958091E7
:10034000C00087FF03C08091C600F9CF0895809157
:10035000C00087FFFCCF8091C60008959091C00037
:1003600095FFFCCF8093C60008950F931F93CF9302
:10037000DF93EC018C01FE0101900020E9F7319739
:10038000EC1BFD0BC8018C1B9D0B8E179F0730F4D7
:10039000F80181918F010E94AE01EDCFDF91CF91E5
:1003A0001F910F9108958430C1F050F48130D9F13C
:1003B000D0F08230D9F08330F9F489E090E00895EC
:1003C0008630B9F068F0803229F08F3FA9F487E0D9
:1003D00090E0089583E090E0089584E090E008952F
:1003E00085E090E0089586E090E0089588E090E050
:1003F00008958BE090E00895807F803359F018F4E1
:100400008031A1F00DC0803441F0803549F48CE09A
:1004100090E0089582E090E008958AE090E00895E9
:100420008DE090E0089580E090E0089581E090E014
:100430000895CF93DF93EC0164E774E00E94F8071E
:10044000892B09F45DC06CE574E0CE010E94F807C9
:10045000892B09F458C066E674E0CE010E94F807C3
:10046000892B09F453C061E774E0CE010E94F807BC
:10047000892B09F44EC06EE774E0CE010E94F807A4
:10048000892B09F449C064E874E0CE010E94F807A2
:10049000892B09F444C069E874E0CE010E94F80792
:1004A000892B09F43FC06EE874E0CE010E94F80782
:1004B000892BD9F163E974E0CE010E94F807892BFA
:1004C000B9F16BE974E0CE010E94F807892B99F12C
:1004D00063EA74E0CE010E94F807892B79F16AEA99
:1004E00074E0CE010E94F807892B59F16EEA74E09E
:1004F000CE010E94F807892B39F18DE090E026C0EB
:1005000080E090E023C081E090E020C082E090E0B5
:100510001DC083E090E01AC084E090E017C085E041
:1005200090E014C086E090E011C087E090E00EC03B
:1005300088E090E00BC089E090E008C08AE090E09D
:1005400005C08BE090E002C08CE090E0DF91CF919D
:100550000895803251F018F4873018F406C08F3FA8
:1005600021F08F70843008F408958FEF0895AF92D2
:10057000BF92CF92DF92EF92FF920F931F93CF9390
:10058000DF930091BC0410E0C091BD04D0E0E5E031
:10059000F3E080E0A82E82E0B82E90E0E92E91E012
:1005A000F92E24E6C22ED12C219130E020583109B9
:1005B000209FC001219F900D309F900D1124B60106
:1005C0000E9483076058D5016D935D012C9FC00187
:1005D0002D9F900D3C9F900D1124B6010E94830722
:1005E0006058D7016D937D01B4E0E530FB07E1F67B
:1005F000DF91CF911F910F91FF90EF90DF90CF90FF
:10060000BF90AF9008951F920F920FB60F921124D2
:100610002F933F938F939F93EF93FF938091B60413
:10062000E091BE04E80FF0E0E050FE4F808187BD0E
:100630008091B604E091BF04E80FF0E0E050FE4F77
:10064000808188BD8091B604E091C004E80FF0E09D
:10065000E050FE4F80818093B3008091B604E0911A
:10066000C104E80FF0E0E050FF4F80818093B400B8
:100670008091B6048F5F8093B6048091BB04882379
:1006800019F18091B7049091B8042091B904309188
:10069000BA048217930710F4019604C0281739078B
:1006A00030F401979093B8048093B70405C0821783
:1006B000930711F41092BB048091B7049091B80491
:1006C0009093890080938800FF91EF919F918F9183
:1006D0003F912F910F900FBE0F901F901895FC0126
:1006E000208585819681222381F09093BA0480939E
:1006F000B90480918800909189009093B804809308
:10070000B70481E08093BB0404C090938900809378
:100710008800108680918100887F8093810090916D
:10072000810084818770892B809381000895DC018A
:10073000EEEBF4E051968C915197808352968C9118
:100740005297818353968C915397828354968C91C0
:1007500083830895ECEBF4E0DC0119962C91199752
:1007600020831A968C9181830C94B702DC01E1EB13
:10077000F0E09081917F908395B5917F95BD208128
:1007800017969C9117979770922B908395B5179613
:100790008C918770892B85BD0895FC018091B000F4
:1007A0008F758093B00084B58F7584BD8589813045
:1007B00029F48091B00080688093B00086898130F0
:1007C00029F48091B00080628093B00087898130E5
:1007D00019F484B5806884BD808D813019F484B5A6
:1007E000806284BD0895CF93DF93EC010E946F0374
:1007F000CE010E949703CE010E94AA03CE010E945F
:10080000B603CE01DF91CF910C94CD03FC0171832F
:1008100060830895FC01718360830895AC01FC013D
:1008200080E09F01241B350B2617370764F42191C4
:10083000982F922728E087E0990F08F498272A95A7
:10084000D9F7892FEECF08956F927F928F929F9262
:10085000AF92BF92CF92DF92EF92FF920F931F93CE
:10086000CF93DF93CDB7DEB766970FB6F894DEBFB0
:100870000FBECDBF0E94FE05792E0E94A7018432D3
:1008800059F00E94FE0529833A834B835C836D8374
:100890007E838F8398874EC0898B0E94A701F82E94
:1008A0000E94D3018C018F2D0E94A902682E0D3069
:1008B000110539F384E0861524F3FA8A4E01E3E149
:1008C0008E0E911C5E01F6E1AF0EB11CC12CD12C35
:1008D00076010E94A701F40181934F01FE2CED2CBB
:1008E000DC2CCC24C80ED11CE11CF11CEA15FB0544
:1008F00081F7B701A601C8010E9420068F3F09F2C7
:10090000813011F47724739465E070E0CE01419654
:100910000E940E04B82E0E94A701B812B2CFBE8A60
:100920000E949F011A830983CB82DC82ED82FE82C2
:100930006F82788629813A814B815C816D817E81CD
:100940008F81988566960FB6F894DEBF0FBECDBF37
:10095000DF91CF911F910F91FF90EF90DF90CF909B
:10096000BF90AF909F908F907F906F9008954F921F
:100970005F926F927F928F929F92AF92BF92CF922F
:10098000DF92EF92FF920F931F93CF93DF93CDB738
:10099000DEB7AE970FB6F894DEBF0FBECDBF0E9494
:1009A000FE059EA7722E632E352F262F972FBE0190
:1009B0006F5F7F4F6B015EE1FB0111925A95E9F782
:1009C000842E932EA22EB92E582EE12CF12C00E06D
:1009D00010E08EE1482E0E94A7010230110589F136
:1009E00038F40115110561F001301105B9F0F3CFAC
:1009F0000330110589F10430110509F44BC0EBCF28
:100A0000853209F48DC00E94FE052F8F38A349A3BB
:100A10005AA36BA37CA38DA39EA351C0803271F017
:100A20008F3509F46EC08D3009F468C0F601EE0D03
:100A3000FF1D8083FFEFEF1AFF0ACDCF03E010E028
:100A400062C090ED980F9A3010F4592EC4CF8032C6
:100A5000D1F603E010E0BFCF8D30A1F4C6010E94B3
:100A60002A064B015C016E3F7F4F8F4F9F4F59F21B
:100A7000F601242D11922A95E9F7E12CF12C04E0DE
:100A800010E0A9CFF601EE0DFF1D80836FEFE61A8F
:100A9000F60AA1CF8A3009F0B6CF0E949F017FA24B
:100AA00068A689A69AA6ABA6BCA65DA688E0FE01AC
:100AB000B796DE015F9601900D928A95E1F72F8D32
:100AC00038A149A15AA16BA17CA18DA19EA1AE968E
:100AD0000FB6F894DEBF0FBECDBFDF91CF911F914F
:100AE0000F91FF90EF90DF90CF90BF90AF909F90CD
:100AF0008F907F906F905F904F90089504E010E08A
:100B000002C002E010E0C6010E941902F601242D85
:100B100011922A95E9F7782E692EE12CF12C5BCF02
:100B200001E010E058CFCF93DF93CDB7DEB7289721
:100B30000FB6F894DEBF0FBECDBFDC01ED91FC9186
:100B4000208131812115310531F021303105B1F499
:100B50000E94B70402C00E94240429833A834B8375
:100B60005C836D837E838F83988729813A814B8153
:100B70005C816D817E818F81988500C028960FB63B
:100B8000F894DEBF0FBECDBFDF91CF910895CF9215
:100B9000DF92EF92FF92CF93DF93FC0177FF06C0C5
:100BA0008EE4808391E69183828320C041155105B4
:100BB0006105710519F480E3808318C0EC018AE0B7
:100BC000C82ED12CE12CF12CCB01BA01A701960142
:100BD0000E94B907942F852F605D6993A901692F41
:100BE000782F411551056105710571F781E0DF919D
:100BF000CF91FF90EF90DF90CF900895CF93DF9348
:100C0000CDB7DEB728970FB6F894DEBF0FBECDBFC5
:100C1000FE01319688E0DF011D928A95E9F72DE00B
:100C20004FEF8FEF30E05FEF6FEF7FEF9885289603
:100C30000FB6F894DEBF0FBECDBFDF91CF91089500
:100C400081E090E04F3F5F4F6F4F710511F080E002
:100C500090E008950F931F93CF93DF93EC010990D9
:100C60000020E9F7FC01219720E030E0A901EC1712
:100C7000FD07C9F0119180ED810F8A30B8F4AAE028
:100C8000B0E00E94DE07212F110F330B20533109F2
:100C90008901330F220B330BA9019801260F371F4F
:100CA000481F591FE4CFB901CA0104C06EEF7FEF9E
:100CB0008FEF9FEFDF91CF911F910F910895CF9309
:100CC000DF93CDB7DEB7A5970FB6F894DEBF0FBEA2
:100CD000CDBFF8941BA21AA20E948C01CE010196EE
:100CE0000E946D001AB814B88AB188668AB984B1B6
:100CF0008A6084B910928000809180008064809323
:100D00008000109281008091810089608093810031
:100D100080916F00826080936F001092B00080918C
:100D2000B00083608093B0001092B1008091B10058
:100D300081608093B10014BC84B5836084BD15BC10
:100D400085B5816085BDBE016E5D7F4FCE01849605
:100D50000E940604789402E010E0CE0184960E947E
:100D60009305E22F282FEA8F3B8F4C8F5D8F6E8F7C
:100D70007F8F88A399A3EA8DFB8D4C8D5D8D6E8D41
:100D80007F8D0130110509F45DC00230110509F4B1
:100D90008EC0ED30F10508F052C0EC5CFF4F0C94B2
:100DA000D807CE0101960E948A00019609F447C037
:100DB000CE0101960E946F0381C0CE0101960E9470
:100DC0002C010196E1F1CE0101960E94AA0376C0A2
:100DD000CE0101960E94FA00019689F1CE0101969A
:100DE0000E9497036BC0CE0101960E9440010196BC
:100DF00031F1CE0101960E94B60360C084B58F75B3
:100E000084BD8091B0008F758093B00037C082E1BF
:100E100094E056C086E294E053C08CE094E00E94D7
:100E2000B50101E010E099CFCE0101960E94670163
:100E3000019629F0CE0101960E94CD033FC085E0C6
:100E400094E03EC0ED30F10508F044C0EF5BFF4F89
:100E50000C94D807CE0101960E948A0023C0CE01CF
:100E600001960E942C011EC0CE0101960E94FA003C
:100E700019C0CE0101960E94400114C08CE094E09C
:100E80000E94B50168CF82E194E026C087E394E038
:100E900023C0CE0101960E94670104C0CE010196D5
:100EA0000E9481010196B1F08CE094E015C0E4301D
:100EB000F10559F4CE0101960E94F3038CE094E011
:100EC0000E94B50100E010E048CF379719F48BE499
:100ED00094E002C085E094E00E94B5013ECFAA1BD9
:100EE000BB1B51E107C0AA1FBB1FA617B70710F015
:100EF000A61BB70B881F991F5A95A9F78095909547
:100F0000BC01CD01089597FB072E16F4009407D07D
:100F100077FD09D00E946F0707FC05D03EF490953D
:100F200081959F4F0895709561957F4F0895A1E237
:100F30001A2EAA1BBB1BFD010DC0AA1FBB1FEE1F53
:100F4000FF1FA217B307E407F50720F0A21BB30B9E
:100F5000E40BF50B661F771F881F991F1A9469F71A
:100F600060957095809590959B01AC01BD01CF0176
:100F70000895052E97FB1EF400940E94D00757FD9C
:100F800007D00E94970707FC03D04EF40C94D007BB
:100F900050954095309521953F4F4F4F5F4F0895A5
:100FA00090958095709561957F4F8F4F9F4F0895D5
:100FB000EE0FFF1F0590F491E02D09940E94E907C0
:100FC000A59F900DB49F900DA49F800D911D11249D
:100FD0000895A29FB001B39FC001A39F700D811D12
:100FE0001124911DB29F700D811D1124911D089532
:100FF000FB01DC018D91019080190110D9F3990B4F
:061000000895F894FFCFF3
:10100600808386898D909396999C9FA2A5A8ABAE66
:10101600B1B4B7BABCBFC2C4C7CACCCFD1D4D6D874
:10102600DBDDDFE1E3E5E7E9EAECEEEFF1F2F4F52B
:10103600F6F7F9FAFAFBFCFDFEFEFFFFFFFFFFFFE6
:10104600FFFFFFFFFFFFFFFEFEFDFCFBFAFAF9F7CD
:10105600F6F5F4F2F1EFEEECEAE9E7E5E3E1DFDDE0
:10106600DBD8D6D4D1CFCCCAC7C4C2BFBCBAB7B4FA
:10107600B1AEABA8A5A29F9C999693908D898683C5
:10108600807D7A7773706D6A6764615E5B585552CE
:101096004F4C494644413E3C393634312F2C2A28A0
:1010A6002523211F1D1B1917161412110F0E0C0BC9
:1010B6000A090706060504030202010101000000F1
:1010C60000000000010101020203040506060709EB
:1010D6000A0B0C0E0F1112141617191B1D1F2123B4
:1010E60025282A2C2F313436393C3E414446494C7A
:1010F6004F5255585B5E6164676A6D7073777A7D8F
:10110600808386898D909396999C9FA2A5A8ABAE65
:10111600B1B4B7BABCBFC2C4C7CACCCFD1D4D6D873
:10112600DBDDDFE1E3E5E7E9EAECEEEFF1F2F4F52A
:10113600F6F7F9FAFAFBFCFDFEFEFFFFFFFFFFFFE5
:10114600FFFFFFFFFFFFFFFEFEFDFCFBFAFAF9F7CC
:10115600F6F5F4F2F1EFEEECEAE9E7E5E3E1DFDDDF
:10116600DBD8D6D4D1CFCCCAC7C4C2BFBCBAB7B4F9
:10117600B1AEABA8A5A29F9C999693908D898683C4
:10118600807D7A7773706D6A6764615E5B585552CD
:101196004F4C494644413E3C393634312F2C2A289F
:1011A6002523211F1D1B1917161412110F0E0C0BC8
:1011B6000A090706060504030202010101000000F0
:1011C60000000000010101020203040506060709EA
:1011D6000A0B0C0E0F1112141617191B1D1F2123B3
:1011E60025282A2C2F313436393C3E414446494C79
:1011F6004F5255585B5E6164676A6D7073777A7D8E
:10120600000306080A808386898D909396999C9F91
:10121600A2A5A8ABAEB1B4B7BABCBFC2C4C7CACC4C
:10122600CFD1D4D6D8DBDDDFE1E3E5E7E9EAECEEC2
:10123600EFF1F2F4F5F6F7F9FAFAFBFCFDFEFEFF24
:10124600FFFFFFFFFFFFFFFFFFFFFFFFFEFEFDFCAF
:10125600FBFAFAF9F7F6F5F4F2F1EFEEECEAE9E764
:10126600E5E3E1DFDDDBD8D6D4D1CFCCCAC7C4C233
:10127600BFBCBAB7B4B1AEABA8A5A29F9C999693D2
:10128600908D898683807D7A7773706D6A676461D5
:101296005E5B5855524F4C494644413E3C393634C4
:1012A600312F2C2A282523211F1D1B19171614122E
:1012B600110F0E0C0B0A09070606050403020201AC
:1012C6000101000000000000000101010202030408
:1012D60005060607090A0B0C0E0F1112141617192C
:1012E6001B1D1F212325282A2C2F313436393C3E3D
:1012F600414446494C4F5255585B5E6164676A6D7E
:101306007073777A7D52454A200D0A004F4B200DA7
:101316000A004F4B2056455253494F4E3A20302E25
:10132600312E300D0A004F4B205354415254205356
:10133600544154450D0A004F4B20505245504152DE
:1013460045205354415445200D0A004F4B20535419
:101356004F50205354415445200D0A00616D706C66
:10136600697475646500706861736573686966742D
:101376000070776D6672657175656E63790073745A
:101386006172740073746F7000696E666F007069C5
:101396006E67007072657061726500657865637569
:1013A6007465006761746865720076666400656ED0
:0613B60061626C6500009D
:00000001FF
