:100000000C9434000C9451000C9451000C94510049
:100010000C9451000C9451000C9451000C9451001C
:100020000C9451000C9451000C9451000C9421023A
:100030000C9451000C9451000C9451000C945100FC
:100040000C9451000C9451000C9451000C945100EC
:100050000C9451000C9451000C9451000C945100DC
:100060000C9451000C94510011241FBECFEFD8E026
:10007000DEBFCDBF12E0A0E0B1E0EAEDF8E002C0E3
:1000800005900D92AA36B107D9F722E0AAE6B2E0B0
:1000900001C01D92AF36B207E1F70E946C030C94C9
:1000A0006B040C9400008F929F92AF92BF92EF92DC
:1000B000FF920F931F93CF93DF93EC0177FD43C023
:1000C0008C017C019AE0892E912CA12CB12C411538
:1000D00051056105710581F0CB01BA01A5019401BB
:1000E0000E942904942F852F605DD7016D937D01B7
:1000F000A901692F782FEBCFFE0101900020E9F7CD
:100100003197EC1BFD0BF695E795F695E79580E0AA
:1001100090E08E179F07BCF4D8012C91DE010D9062
:100120000020E9F71197A81BB90B3C91D8013D932A
:100130008D01DE010D900020E9F71197A81BB90B86
:100140002C930196E6CF81E0DF91CF911F910F9123
:10015000FF90EF90BF90AF909F908F900895CF93B6
:10016000DF93EC016BE272E00E946204892BC1F024
:1001700063E172E0CE010E946204892BA1F06EE17E
:1001800072E0CE010E946204892B81F068E272E085
:10019000CE010E946204892B61F080E090E00BC0E8
:1001A00081E090E008C082E090E005C083E090E04C
:1001B00002C084E090E0DF91CF9108950F931F93E8
:1001C000CF93DF93EC0109900020E9F7FC01219720
:1001D00020E030E0A901EC17FD07C9F0119180ED96
:1001E000810F8A30B8F4AAE0B0E00E944804212FC1
:1001F000110F330B205331098901330F220B330BBD
:10020000A9019801260F371F481F591FE4CFB901D4
:10021000CA0104C06FEF7FEF8FEF9FEFDF91CF91A7
:100220001F910F9108953F924F925F926F927F922C
:100230008F929F92AF92BF92CF92DF92EF92FF92F6
:100240000F931F93CF93DF93CDB7DEB76E970FB6A3
:10025000F894DEBF0FBECDBF4C018AE0E4E0F1E0D0
:10026000D40101900D928A95E1F78E010F5F1F4F27
:100270008EE1F80111928A95E9F7A12CB12C442462
:100280004A94542C3201C12CD12CE12CF12C4EE19A
:10029000342E0E94D901F1E0EF16F10469F048F024
:1002A00092E0E916F10439F1E3E0EE16F104D9F138
:1002B000F0CF8532D1F53CC08D3061F4C8010E9489
:1002C000AF00F801232D11922A95E9F75C01C12CAA
:1002D000D12C1DC08032F9F4C8010E94AF00F80192
:1002E000232D11922A95E9F75C01C12CD12C22E033
:1002F000E22EF12CCECF8D3071F4C8010E94DE00C9
:100300002B013C01F801232D11922A95E9F793E086
:10031000E92EF12CBECFF801EC0DFD1D80838FEF8F
:10032000C81AD80AB6CF8A3039F0A12CB12C04C033
:10033000EE24E394F12CADCF0E94D101F401B182FF
:10034000A0824282538264827582C4016E960FB687
:10035000F894DEBF0FBECDBFDF91CF911F910F91FB
:10036000FF90EF90DF90CF90BF90AF909F908F90D5
:100370007F906F905F904F903F900895519A509862
:1003800082E08093C0001092C5008FEC8093C4007F
:10039000E1ECF0E080818861808386E08093C20098
:1003A00008958091C00087FF03C08091C600F9CFF7
:1003B00008958091C00087FFFCCF8091C60008950A
:1003C0009091C00095FFFCCF8093C60008950F93D5
:1003D0001F93CF93DF93EC018C01FE01019000206D
:1003E000E9F73197EC1BFD0BC8018C1B9D0B8E1799
:1003F0009F0730F4F80181918F010E94E001EDCF59
:10040000DF91CF911F910F910895FC0180E593EC4E
:10041000A0E0B0E080839183A283B383148282EE54
:1004200094E09683858384E68783808781878287AB
:1004300013861486158616861786108A118A128AE4
:1004400008951F920F920FB60F9211240F931F93CE
:100450002F933F934F935F936F937F938F939F93CC
:10046000AF93BF93CF93DF93EF93FF9380916A0293
:10047000ABE6B2E0EC91F0E0ED5EFE4FE80FF11D6F
:10048000208180916A021196EC911197F0E0ED5E67
:10049000FE4FE80FF11DC08180916A021296EC9127
:1004A0001297F0E0ED5EFE4FE80FF11D4081809164
:1004B0006A021396EC91F0E0ED5EFE4FE80FF11D3D
:1004C0003081E0E0F1E08081D18102811381289FB9
:1004D000C0011124E4E6F0E0BF010E94F303261BF3
:1004E00027BDCD9FC0011124BF010E94F303C61B8D
:1004F000C8BDC42FD0E0409FC0011124BF010E949D
:10050000F303C61BD10967FDD395D0938900C0932F
:100510008800C32FD0E0319FC0011124BF010E9489
:10052000F303C61BD10967FDD395D0938B00C0930D
:100530008A0080916A028F5F80936A02FF91EF9137
:10054000DF91CF91BF91AF919F918F917F916F91EB
:100550005F914F913F912F911F910F910F900FBE7F
:100560000F901F901895CF92DF92EF92FF920F930A
:100570001F93CF93DF9300D000D01F92CDB7DEB78B
:100580008C016A017B0185E0EEE0F1E0DE0111966D
:1005900001900D928A95E1F72227342F452F562F8F
:1005A00060E070E18EE59FE50E94070480E0211580
:1005B000310591E04907510580F0E1E0F0E0EC0FF2
:1005C000FD1FE80FF11D008004C056954795379533
:1005D00027950A94D2F78F5FEACFF801C082D182C3
:1005E000E282F3828483368325830F900F900F90ED
:1005F0000F900F90DF91CF911F910F91FF90EF908F
:10060000DF90CF900895DC0115968D919C911697FF
:100610009093890080938800E1E8F0E09081987FD2
:100620009083908114968C918770892B8083089594
:10063000FC01262F47FF0FC0962F80E068E671E08F
:100640000E94DF03238767872487608B2587618B60
:100650002687628B0895E40FF11D47FDFA956387A5
:10066000962F80E068E671E00E94DF0367870895B7
:10067000DC01EBE6F2E01F968C911F978083509689
:100680008C915097818351968C9151978283529689
:100690008C9183830895FC0147FF05C067836087C1
:1006A000618762870895E40FF11D47FDFA9567831E
:1006B0000895DC01E0E0F1E017968C9117978083B4
:1006C00018968C911897818319968C91199782832B
:1006D0001A968C9183830895CF93DF93CDB7DEB7BD
:1006E0006D970FB6F894DEBF0FBECDBF0E94BE015E
:1006F000CE0101960E9405021092800010928100A6
:100700008091810088608093810080916F00826079
:1007100080936F001092B0008091B000816A809346
:10072000B0001092B1008091B10089608093B10057
:1007300014BC84B5816A84BD15BC85B5896085BD4E
:10074000CE0144960E9413018C899D89009719F46B
:1007500085E392E031C06E895F89388D798D813073
:10076000910571F42FEF462F632FCE0101960E9461
:10077000B302CE0101960E9403038BE392E01CC0FA
:100780008230910561F44FEFCE0101960E9418036B
:10079000CE0101960E9438038AE492E00DC00397CF
:1007A00079F64FEFCE0101960E944B03CE010196E0
:1007B0000E9459038AE592E00E94E701C1CFAA1B7B
:1007C000BB1B51E107C0AA1FBB1FA617B70710F03C
:1007D000A61BB70B881F991F5A95A9F7809590956E
:1007E000BC01CD01089597FB072E16F4009407D0A5
:1007F00077FD09D00E94DF0307FC05D03EF49095F9
:1008000081959F4F0895709561957F4F0895A1E25E
:100810001A2EAA1BBB1BFD010DC0AA1FBB1FEE1F7A
:10082000FF1FA217B307E407F50720F0A21BB30BC5
:10083000E40BF50B661F771F881F991F1A9469F741
:1008400060957095809590959B01AC01BD01CF019D
:100850000895052E97FB1EF400940E94400457FD56
:1008600007D00E94070407FC03D04EF40C94400408
:1008700050954095309521953F4F4F4F5F4F0895CC
:1008800090958095709561957F4F8F4F9F4F0895FC
:100890000E945304A59F900DB49F900DA49F800DBE
:1008A000911D11240895A29FB001B39FC001A39F81
:1008B000700D811D1124911DB29F700D811D112499
:1008C000911D0895FB01DC018D91019080190110AB
:0A08D000D9F3990B0895F894FFCFB7
:1008DA00646464640000FFFFFFFFFFFFFFFF000383
:1008EA0006080A808386898C8F9295989C9FA2A578
:1008FA00A8ABAEB0B3B6B9BCBFC1C4C7C9CCCED120
:10090A00D3D5D8DADCDEE0E2E4E6E8EAECEDEFF0B3
:10091A00F2F3F5F6F7F8F9FAFBFCFCFDFEFEFFFF31
:10092A00FFFFFFFFFFFFFFFFFFFEFEFDFCFCFBFAE0
:10093A00F9F8F7F6F5F3F2F0EFEDECEAE8E6E4E2BF
:10094A00E0DEDCDAD8D5D3D1CECCC9C7C4C1BFBCAE
:10095A00B9B6B3B0AEABA8A5A29F9C9895928F8C5E
:10096A00898683807C797673706D6A6763605D5A65
:10097A005754514F4C494643403E3B383633312E4B
:10098A002C2A272423211F1D1B1917151312100F98
:10099A000D0C0A09080706050403020101000000FC
:1009AA000000000000000000010102030304050624
:1009BA000708090A0C0D0F1012131517191B1D1F12
:1009CA002325272A2C2E313336383B3E40434649CD
:1009DA004C4F5154575A5D6063676A6D70737679EC
:1009EA007C00007068617365736869667400616D84
:1009FA00706C69747564650070776D66726571757F
:100A0A00656E63790052454A0D0A004F4B204652E3
:100A1A00455155454E43590D0A004F4B2050484108
:100A2A00534553484946540D0A004F4B20414D50F7
:0A0A3A004C49545544450D0A0000D4
:00000001FF
