:100000000C9434000C9449000C9449000C94490061
:100010000C9449000C9449000C9449000C9449003C
:100020000C9449000C9449000C9449000C9449002C
:100030000C9449000C9449000C9449000C9449001C
:100040000C9449000C9449000C9449000C9449000C
:100050000C9449000C9449000C9449000C944900FC
:100060000C9449000C94490011241FBECFEFD8E036
:10007000DEBFCDBF11E0A0E0B1E0E6E4F2E002C0F7
:1000800005900D92A630B107D9F70E94FA000C94A2
:1000900021010C940000CF93DF93CDB7DEB76197B9
:1000A0000FB6F894DEBF0FBECDBF6C877D878E87FD
:1000B0009F87598B488B85E0E0E0F1E0DE011796E1
:1000C00001900D928A95E1F785E08E838C859D8560
:1000D000AE85BF852227382F492F5A2F80E090E127
:1000E000AEE5BFE5BC01CD010E94FF00DA01C90108
:1000F00089839A83AB83BC831D8224C09D818E81BA
:10010000981710F080E033C08D81882F90E09E0119
:10011000295F3F4F820F931FFC018081282F30E021
:1001200089819A81AB81BC8104C0B695A7959795CA
:1001300087952A95D2F789839A83AB83BC838D8177
:100140008F5F8D8389819A81AB81BC810197A140AA
:10015000B105A0F6888999892D81FC012283298126
:100160003A8188899989FC013183208381E06196F5
:100170000FB6F894DEBF0FBECDBFDF91CF910895CB
:10018000CF93DF9300D000D0CDB7DEB789836A83E9
:100190005C834B838A81882F90E02B813C81820F86
:1001A000931F03962981FC01208300000F900F907C
:1001B0000F900F90DF91CF910895CF93DF9300D0F0
:1001C00000D0CDB7DEB789836A835C834B838A8195
:1001D000882F90E02B813C81820F931F0796298105
:1001E000FC01208300000F900F900F900F90DF9183
:1001F000CF910895CF93DF93CDB7DEB7FFCFA1E2C4
:100200001A2EAA1BBB1BFD010DC0AA1FBB1FEE1F90
:10021000FF1FA217B307E407F50720F0A21BB30BDB
:10022000E40BF50B661F771F881F991F1A9469F757
:1002300060957095809590959B01AC01BD01CF01B3
:060240000895F894FFCFC1
:06024600000306080A0097
:00000001FF
